{
  "_format": "hh-sol-artifact-1",
  "contractName": "ArgoBridgeV1",
  "sourceName": "contracts/ArgoBridgeV1.sol",
  "abi": [
    {
      "inputs": [
        {
          "internalType": "address",
          "name": "defaultAdmin",
          "type": "address"
        },
        {
          "internalType": "address",
          "name": "joystreamErc20Address",
          "type": "address"
        },
        {
          "internalType": "uint256",
          "name": "initialBridgeFee",
          "type": "uint256"
        },
        {
          "internalType": "uint256",
          "name": "initialMintingLimitPeriodLengthBlocks",
          "type": "uint256"
        },
        {
          "internalType": "uint256",
          "name": "initialMintingLimitPerPeriod",
          "type": "uint256"
        }
      ],
      "stateMutability": "nonpayable",
      "type": "constructor"
    },
    {
      "inputs": [],
      "name": "AccessControlBadConfirmation",
      "type": "error"
    },
    {
      "inputs": [
        {
          "internalType": "address",
          "name": "account",
          "type": "address"
        },
        {
          "internalType": "bytes32",
          "name": "neededRole",
          "type": "bytes32"
        }
      ],
      "name": "AccessControlUnauthorizedAccount",
      "type": "error"
    },
    {
      "inputs": [
        {
          "internalType": "uint256",
          "name": "amount",
          "type": "uint256"
        }
      ],
      "name": "ArgoBridgeInvalidAmount",
      "type": "error"
    },
    {
      "inputs": [
        {
          "internalType": "uint256",
          "name": "requiredFee",
          "type": "uint256"
        }
      ],
      "name": "ArgoBridgeInvalidFee",
      "type": "error"
    },
    {
      "inputs": [
        {
          "internalType": "uint256",
          "name": "requestedAmount",
          "type": "uint256"
        },
        {
          "internalType": "uint256",
          "name": "mintingAllowance",
          "type": "uint256"
        }
      ],
      "name": "ArgoBridgeMintingLimitReached",
      "type": "error"
    },
    {
      "inputs": [],
      "name": "ArgoBridgeNotActive",
      "type": "error"
    },
    {
      "anonymous": false,
      "inputs": [
        {
          "indexed": false,
          "internalType": "uint256",
          "name": "newFee",
          "type": "uint256"
        }
      ],
      "name": "ArgoBridgeFeeChanged",
      "type": "event"
    },
    {
      "anonymous": false,
      "inputs": [
        {
          "indexed": false,
          "internalType": "address",
          "name": "destination",
          "type": "address"
        },
        {
          "indexed": false,
          "internalType": "uint256",
          "name": "amount",
          "type": "uint256"
        }
      ],
      "name": "ArgoBridgeFeesWithdrawn",
      "type": "event"
    },
    {
      "anonymous": false,
      "inputs": [
        {
          "indexed": false,
          "internalType": "uint256",
          "name": "newMintingLimitPeriodLengthBlocks",
          "type": "uint256"
        },
        {
          "indexed": false,
          "internalType": "uint256",
          "name": "newMintingLimitPerPeriod",
          "type": "uint256"
        }
      ],
      "name": "ArgoBridgeMintingLimitsUpdated",
      "type": "event"
    },
    {
      "anonymous": false,
      "inputs": [
        {
          "indexed": false,
          "internalType": "enum ArgoBridgeV1.ArgoBridgeStatus",
          "name": "newStatus",
          "type": "uint8"
        }
      ],
      "name": "ArgoBridgeStatusChanged",
      "type": "event"
    },
    {
      "anonymous": false,
      "inputs": [
        {
          "indexed": true,
          "internalType": "uint256",
          "name": "joyTransferId",
          "type": "uint256"
        },
        {
          "indexed": true,
          "internalType": "address",
          "name": "ethDestAddress",
          "type": "address"
        },
        {
          "indexed": false,
          "internalType": "uint256",
          "name": "amount",
          "type": "uint256"
        }
      ],
      "name": "ArgoTransferToEthCompleted",
      "type": "event"
    },
    {
      "anonymous": false,
      "inputs": [
        {
          "indexed": true,
          "internalType": "uint256",
          "name": "ethTransferId",
          "type": "uint256"
        },
        {
          "indexed": true,
          "internalType": "address",
          "name": "ethRequester",
          "type": "address"
        },
        {
          "indexed": false,
          "internalType": "bytes32",
          "name": "joyDestAccount",
          "type": "bytes32"
        },
        {
          "indexed": false,
          "internalType": "uint256",
          "name": "amount",
          "type": "uint256"
        }
      ],
      "name": "ArgoTransferToJoystreamRequested",
      "type": "event"
    },
    {
      "anonymous": false,
      "inputs": [
        {
          "indexed": true,
          "internalType": "bytes32",
          "name": "role",
          "type": "bytes32"
        },
        {
          "indexed": true,
          "internalType": "bytes32",
          "name": "previousAdminRole",
          "type": "bytes32"
        },
        {
          "indexed": true,
          "internalType": "bytes32",
          "name": "newAdminRole",
          "type": "bytes32"
        }
      ],
      "name": "RoleAdminChanged",
      "type": "event"
    },
    {
      "anonymous": false,
      "inputs": [
        {
          "indexed": true,
          "internalType": "bytes32",
          "name": "role",
          "type": "bytes32"
        },
        {
          "indexed": true,
          "internalType": "address",
          "name": "account",
          "type": "address"
        },
        {
          "indexed": true,
          "internalType": "address",
          "name": "sender",
          "type": "address"
        }
      ],
      "name": "RoleGranted",
      "type": "event"
    },
    {
      "anonymous": false,
      "inputs": [
        {
          "indexed": true,
          "internalType": "bytes32",
          "name": "role",
          "type": "bytes32"
        },
        {
          "indexed": true,
          "internalType": "address",
          "name": "account",
          "type": "address"
        },
        {
          "indexed": true,
          "internalType": "address",
          "name": "sender",
          "type": "address"
        }
      ],
      "name": "RoleRevoked",
      "type": "event"
    },
    {
      "inputs": [],
      "name": "DEFAULT_ADMIN_ROLE",
      "outputs": [
        {
          "internalType": "bytes32",
          "name": "",
          "type": "bytes32"
        }
      ],
      "stateMutability": "view",
      "type": "function"
    },
    {
      "inputs": [],
      "name": "OPERATOR_ROLE",
      "outputs": [
        {
          "internalType": "bytes32",
          "name": "",
          "type": "bytes32"
        }
      ],
      "stateMutability": "view",
      "type": "function"
    },
    {
      "inputs": [],
      "name": "PAUSER_ROLE",
      "outputs": [
        {
          "internalType": "bytes32",
          "name": "",
          "type": "bytes32"
        }
      ],
      "stateMutability": "view",
      "type": "function"
    },
    {
      "inputs": [],
      "name": "bridgeFee",
      "outputs": [
        {
          "internalType": "uint256",
          "name": "",
          "type": "uint256"
        }
      ],
      "stateMutability": "view",
      "type": "function"
    },
    {
      "inputs": [],
      "name": "bridgeStatus",
      "outputs": [
        {
          "internalType": "enum ArgoBridgeV1.ArgoBridgeStatus",
          "name": "",
          "type": "uint8"
        }
      ],
      "stateMutability": "view",
      "type": "function"
    },
    {
      "inputs": [
        {
          "internalType": "uint256",
          "name": "joyTransferId",
          "type": "uint256"
        },
        {
          "internalType": "address",
          "name": "ethDestAddress",
          "type": "address"
        },
        {
          "internalType": "uint256",
          "name": "amount",
          "type": "uint256"
        }
      ],
      "name": "completeTransferToEth",
      "outputs": [],
      "stateMutability": "nonpayable",
      "type": "function"
    },
    {
      "inputs": [],
      "name": "currentMintingPeriodEndBlock",
      "outputs": [
        {
          "internalType": "uint256",
          "name": "",
          "type": "uint256"
        }
      ],
      "stateMutability": "view",
      "type": "function"
    },
    {
      "inputs": [],
      "name": "currentMintingPeriodMinted",
      "outputs": [
        {
          "internalType": "uint256",
          "name": "",
          "type": "uint256"
        }
      ],
      "stateMutability": "view",
      "type": "function"
    },
    {
      "inputs": [
        {
          "internalType": "bytes32",
          "name": "role",
          "type": "bytes32"
        }
      ],
      "name": "getRoleAdmin",
      "outputs": [
        {
          "internalType": "bytes32",
          "name": "",
          "type": "bytes32"
        }
      ],
      "stateMutability": "view",
      "type": "function"
    },
    {
      "inputs": [
        {
          "internalType": "bytes32",
          "name": "role",
          "type": "bytes32"
        },
        {
          "internalType": "address",
          "name": "account",
          "type": "address"
        }
      ],
      "name": "grantRole",
      "outputs": [],
      "stateMutability": "nonpayable",
      "type": "function"
    },
    {
      "inputs": [
        {
          "internalType": "bytes32",
          "name": "role",
          "type": "bytes32"
        },
        {
          "internalType": "address",
          "name": "account",
          "type": "address"
        }
      ],
      "name": "hasRole",
      "outputs": [
        {
          "internalType": "bool",
          "name": "",
          "type": "bool"
        }
      ],
      "stateMutability": "view",
      "type": "function"
    },
    {
      "inputs": [],
      "name": "joystreamErc20",
      "outputs": [
        {
          "internalType": "contract JoystreamERC20",
          "name": "",
          "type": "address"
        }
      ],
      "stateMutability": "view",
      "type": "function"
    },
    {
      "inputs": [],
      "name": "mintingLimitPerPeriod",
      "outputs": [
        {
          "internalType": "uint256",
          "name": "",
          "type": "uint256"
        }
      ],
      "stateMutability": "view",
      "type": "function"
    },
    {
      "inputs": [],
      "name": "mintingLimitPeriodLengthBlocks",
      "outputs": [
        {
          "internalType": "uint256",
          "name": "",
          "type": "uint256"
        }
      ],
      "stateMutability": "view",
      "type": "function"
    },
    {
      "inputs": [],
      "name": "pauseBridge",
      "outputs": [],
      "stateMutability": "nonpayable",
      "type": "function"
    },
    {
      "inputs": [
        {
          "internalType": "bytes32",
          "name": "role",
          "type": "bytes32"
        },
        {
          "internalType": "address",
          "name": "callerConfirmation",
          "type": "address"
        }
      ],
      "name": "renounceRole",
      "outputs": [],
      "stateMutability": "nonpayable",
      "type": "function"
    },
    {
      "inputs": [
        {
          "internalType": "bytes32",
          "name": "joyDestAccount",
          "type": "bytes32"
        },
        {
          "internalType": "uint256",
          "name": "amount",
          "type": "uint256"
        }
      ],
      "name": "requestTransferToJoystream",
      "outputs": [],
      "stateMutability": "payable",
      "type": "function"
    },
    {
      "inputs": [
        {
          "internalType": "bytes32",
          "name": "role",
          "type": "bytes32"
        },
        {
          "internalType": "address",
          "name": "account",
          "type": "address"
        }
      ],
      "name": "revokeRole",
      "outputs": [],
      "stateMutability": "nonpayable",
      "type": "function"
    },
    {
      "inputs": [
        {
          "internalType": "uint256",
          "name": "newBridgeFee",
          "type": "uint256"
        }
      ],
      "name": "setBridgeFee",
      "outputs": [],
      "stateMutability": "nonpayable",
      "type": "function"
    },
    {
      "inputs": [
        {
          "internalType": "uint256",
          "name": "newMintingLimitPeriodLengthBlocks",
          "type": "uint256"
        },
        {
          "internalType": "uint256",
          "name": "newMintingLimitPerPeriod",
          "type": "uint256"
        }
      ],
      "name": "setMintingLimits",
      "outputs": [],
      "stateMutability": "nonpayable",
      "type": "function"
    },
    {
      "inputs": [
        {
          "internalType": "bytes4",
          "name": "interfaceId",
          "type": "bytes4"
        }
      ],
      "name": "supportsInterface",
      "outputs": [
        {
          "internalType": "bool",
          "name": "",
          "type": "bool"
        }
      ],
      "stateMutability": "view",
      "type": "function"
    },
    {
      "inputs": [],
      "name": "unpauseBridge",
      "outputs": [],
      "stateMutability": "nonpayable",
      "type": "function"
    },
    {
      "inputs": [],
      "name": "withdrawBridgeFees",
      "outputs": [],
      "stateMutability": "nonpayable",
      "type": "function"
    }
  ],
  "bytecode": "0x608060405260018060006101000a81548160ff021916908360018111156200002c576200002b6200030e565b5b0217905550600060045560006008553480156200004857600080fd5b5060405162001c0f38038062001c0f83398181016040528101906200006e9190620003e2565b620000836000801b866200010960201b60201c565b5083600360006101000a81548173ffffffffffffffffffffffffffffffffffffffff021916908373ffffffffffffffffffffffffffffffffffffffff160217905550620000d6836200020c60201b60201c565b620000e882826200024f60201b60201c565b60055443620000f8919062000499565b60078190555050505050506200052f565b60006200011d83836200029c60201b60201c565b6200020157600160008085815260200190815260200160002060000160008473ffffffffffffffffffffffffffffffffffffffff1673ffffffffffffffffffffffffffffffffffffffff16815260200190815260200160002060006101000a81548160ff0219169083151502179055506200019d6200030660201b60201c565b73ffffffffffffffffffffffffffffffffffffffff168273ffffffffffffffffffffffffffffffffffffffff16847f2f8788117e7eff1d82e926ec794901d17c78024a50270940304540a733656f0d60405160405180910390a46001905062000206565b600090505b92915050565b806002819055507f9d699f862acc3d76830ba2f9d1efc23c25190e4309f64c091cffc65230fe568f81604051620002449190620004e5565b60405180910390a150565b81600581905550806006819055507fc01acf06a73b9c6b1e27941f05c5a9e8f8132593e96d257da8869304c6236f6982826040516200029092919062000502565b60405180910390a15050565b600080600084815260200190815260200160002060000160008373ffffffffffffffffffffffffffffffffffffffff1673ffffffffffffffffffffffffffffffffffffffff16815260200190815260200160002060009054906101000a900460ff16905092915050565b600033905090565b7f4e487b7100000000000000000000000000000000000000000000000000000000600052602160045260246000fd5b600080fd5b600073ffffffffffffffffffffffffffffffffffffffff82169050919050565b60006200036f8262000342565b9050919050565b620003818162000362565b81146200038d57600080fd5b50565b600081519050620003a18162000376565b92915050565b6000819050919050565b620003bc81620003a7565b8114620003c857600080fd5b50565b600081519050620003dc81620003b1565b92915050565b600080600080600060a086880312156200040157620004006200033d565b5b6000620004118882890162000390565b9550506020620004248882890162000390565b94505060406200043788828901620003cb565b93505060606200044a88828901620003cb565b92505060806200045d88828901620003cb565b9150509295509295909350565b7f4e487b7100000000000000000000000000000000000000000000000000000000600052601160045260246000fd5b6000620004a682620003a7565b9150620004b383620003a7565b9250828201905080821115620004ce57620004cd6200046a565b5b92915050565b620004df81620003a7565b82525050565b6000602082019050620004fc6000830184620004d4565b92915050565b6000604082019050620005196000830185620004d4565b620005286020830184620004d4565b9392505050565b6116d0806200053f6000396000f3fe6080604052600436106101405760003560e01c8063865f87ac116100b6578063b4ed71451161006f578063b4ed714514610426578063c194116f1461043d578063d547741f14610466578063e63ab1e91461048f578063f5b541a6146104ba578063ff926998146104e557610140565b8063865f87ac14610328578063890ef5921461035357806391d148541461037e578063998cdf83146103bb578063a217fddf146103e4578063a82f143c1461040f57610140565b8063447117b411610108578063447117b41461023c5780635cfb2ad2146102675780637dd0480f1461029257806382ac7008146102a957806382b12dd7146102d457806384f302f1146102ff57610140565b806301ffc9a714610145578063120da50814610182578063248a9ca3146101ad5780632f2ff15d146101ea57806336568abe14610213575b600080fd5b34801561015157600080fd5b5061016c60048036038101906101679190611156565b610501565b604051610179919061119e565b60405180910390f35b34801561018e57600080fd5b5061019761057b565b6040516101a491906111d2565b60405180910390f35b3480156101b957600080fd5b506101d460048036038101906101cf9190611223565b610581565b6040516101e1919061125f565b60405180910390f35b3480156101f657600080fd5b50610211600480360381019061020c91906112d8565b6105a0565b005b34801561021f57600080fd5b5061023a600480360381019061023591906112d8565b6105c2565b005b34801561024857600080fd5b5061025161063d565b60405161025e91906111d2565b60405180910390f35b34801561027357600080fd5b5061027c610643565b60405161028991906111d2565b60405180910390f35b34801561029e57600080fd5b506102a7610649565b005b3480156102b557600080fd5b506102be610716565b6040516102cb91906111d2565b60405180910390f35b3480156102e057600080fd5b506102e961071c565b6040516102f691906111d2565b60405180910390f35b34801561030b57600080fd5b5061032660048036038101906103219190611344565b610722565b005b34801561033457600080fd5b5061033d61073e565b60405161034a91906113fb565b60405180910390f35b34801561035f57600080fd5b50610368610751565b6040516103759190611475565b60405180910390f35b34801561038a57600080fd5b506103a560048036038101906103a091906112d8565b610777565b6040516103b2919061119e565b60405180910390f35b3480156103c757600080fd5b506103e260048036038101906103dd9190611490565b6107e1565b005b3480156103f057600080fd5b506103f96107fb565b604051610406919061125f565b60405180910390f35b34801561041b57600080fd5b50610424610802565b005b34801561043257600080fd5b5061043b610875565b005b34801561044957600080fd5b50610464600480360381019061045f91906114bd565b61090b565b005b34801561047257600080fd5b5061048d600480360381019061048891906112d8565b610b19565b005b34801561049b57600080fd5b506104a4610b3b565b6040516104b1919061125f565b60405180910390f35b3480156104c657600080fd5b506104cf610b5f565b6040516104dc919061125f565b60405180910390f35b6104ff60048036038101906104fa9190611510565b610b83565b005b60007f7965db0b000000000000000000000000000000000000000000000000000000007bffffffffffffffffffffffffffffffffffffffffffffffffffffffff1916827bffffffffffffffffffffffffffffffffffffffffffffffffffffffff19161480610574575061057382610d4e565b5b9050919050565b60085481565b6000806000838152602001908152602001600020600101549050919050565b6105a982610581565b6105b281610db8565b6105bc8383610dcc565b50505050565b6105ca610ebd565b73ffffffffffffffffffffffffffffffffffffffff168173ffffffffffffffffffffffffffffffffffffffff161461062e576040517f6697b23200000000000000000000000000000000000000000000000000000000815260040160405180910390fd5b6106388282610ec5565b505050565b60075481565b60055481565b7f65d7a28e3265b37a6474929f336521b332c1681b933f6cb9f3376673440d862a61067381610db8565b61067b610fb7565b6106b1576040517f492fe4b900000000000000000000000000000000000000000000000000000000815260040160405180910390fd5b60018060006101000a81548160ff021916908360018111156106d6576106d5611384565b5b02179055507f674a79b744f31247a99ff1ed4a383c0c77299efbdb099b5f69a75077aa3872ae600160405161070b91906113fb565b60405180910390a150565b60065481565b60025481565b6000801b61072f81610db8565b6107398383610ff4565b505050565b600160009054906101000a900460ff1681565b600360009054906101000a900473ffffffffffffffffffffffffffffffffffffffff1681565b600080600084815260200190815260200160002060000160008373ffffffffffffffffffffffffffffffffffffffff1673ffffffffffffffffffffffffffffffffffffffff16815260200190815260200160002060009054906101000a900460ff16905092915050565b6000801b6107ee81610db8565b6107f78261103f565b5050565b6000801b81565b6000801b61080f81610db8565b6000600160006101000a81548160ff0219169083600181111561083557610834611384565b5b02179055507f674a79b744f31247a99ff1ed4a383c0c77299efbdb099b5f69a75077aa3872ae600060405161086a91906113fb565b60405180910390a150565b6000801b61088281610db8565b60004790503373ffffffffffffffffffffffffffffffffffffffff166108fc829081150290604051600060405180830381858888f193505050501580156108cd573d6000803e3d6000fd5b507f120c23ad9d3d7272a0d20dd6b7a2822584daf524e67963daa6a7d47b7576a81633826040516108ff92919061155f565b60405180910390a15050565b7f97667070c54ef182b0f5858b034beac1b6f3089aa2d3188bb1e8929f4fa9b92961093581610db8565b61093d610fb7565b610973576040517f492fe4b900000000000000000000000000000000000000000000000000000000815260040160405180910390fd5b600082036109b857816040517f2dc2b0cc0000000000000000000000000000000000000000000000000000000081526004016109af91906111d2565b60405180910390fd5b6109c0611080565b60006008546006546109d291906115b7565b905080831115610a1b5782816040517fd0b063f0000000000000000000000000000000000000000000000000000000008152600401610a129291906115eb565b60405180910390fd5b8260086000828254610a2d9190611614565b92505081905550600360009054906101000a900473ffffffffffffffffffffffffffffffffffffffff1673ffffffffffffffffffffffffffffffffffffffff166340c10f1985856040518363ffffffff1660e01b8152600401610a9192919061155f565b600060405180830381600087803b158015610aab57600080fd5b505af1158015610abf573d6000803e3d6000fd5b505050508373ffffffffffffffffffffffffffffffffffffffff16857f7e23ecf974046609d9a1de48d379cfca42f21df5a2a1a061dc97468705e44ec285604051610b0a91906111d2565b60405180910390a35050505050565b610b2282610581565b610b2b81610db8565b610b358383610ec5565b50505050565b7f65d7a28e3265b37a6474929f336521b332c1681b933f6cb9f3376673440d862a81565b7f97667070c54ef182b0f5858b034beac1b6f3089aa2d3188bb1e8929f4fa9b92981565b610b8b610fb7565b610bc1576040517f492fe4b900000000000000000000000000000000000000000000000000000000815260040160405180910390fd5b6002543414610c09576002546040517fee18ec47000000000000000000000000000000000000000000000000000000008152600401610c0091906111d2565b60405180910390fd5b60008103610c4e57806040517f2dc2b0cc000000000000000000000000000000000000000000000000000000008152600401610c4591906111d2565b60405180910390fd5b600360009054906101000a900473ffffffffffffffffffffffffffffffffffffffff1673ffffffffffffffffffffffffffffffffffffffff166379cc679033836040518363ffffffff1660e01b8152600401610cab92919061155f565b600060405180830381600087803b158015610cc557600080fd5b505af1158015610cd9573d6000803e3d6000fd5b505050503373ffffffffffffffffffffffffffffffffffffffff166004547f82faa25a69607faadf0963495313e5c2b60799b5c3a65e35d850b77e73b79f6d8484604051610d28929190611648565b60405180910390a3600160046000828254610d439190611614565b925050819055505050565b60007f01ffc9a7000000000000000000000000000000000000000000000000000000007bffffffffffffffffffffffffffffffffffffffffffffffffffffffff1916827bffffffffffffffffffffffffffffffffffffffffffffffffffffffff1916149050919050565b610dc981610dc4610ebd565b6110a8565b50565b6000610dd88383610777565b610eb257600160008085815260200190815260200160002060000160008473ffffffffffffffffffffffffffffffffffffffff1673ffffffffffffffffffffffffffffffffffffffff16815260200190815260200160002060006101000a81548160ff021916908315150217905550610e4f610ebd565b73ffffffffffffffffffffffffffffffffffffffff168273ffffffffffffffffffffffffffffffffffffffff16847f2f8788117e7eff1d82e926ec794901d17c78024a50270940304540a733656f0d60405160405180910390a460019050610eb7565b600090505b92915050565b600033905090565b6000610ed18383610777565b15610fac57600080600085815260200190815260200160002060000160008473ffffffffffffffffffffffffffffffffffffffff1673ffffffffffffffffffffffffffffffffffffffff16815260200190815260200160002060006101000a81548160ff021916908315150217905550610f49610ebd565b73ffffffffffffffffffffffffffffffffffffffff168273ffffffffffffffffffffffffffffffffffffffff16847ff6391f5c32d9c69d2a47ea670b442974b53935d1edc7fd64eb21e047a839171b60405160405180910390a460019050610fb1565b600090505b92915050565b6000806001811115610fcc57610fcb611384565b5b600160009054906101000a900460ff166001811115610fee57610fed611384565b5b14905090565b81600581905550806006819055507fc01acf06a73b9c6b1e27941f05c5a9e8f8132593e96d257da8869304c6236f6982826040516110339291906115eb565b60405180910390a15050565b806002819055507f9d699f862acc3d76830ba2f9d1efc23c25190e4309f64c091cffc65230fe568f8160405161107591906111d2565b60405180910390a150565b60075443106110a657600554436110979190611614565b60078190555060006008819055505b565b6110b28282610777565b6110f55780826040517fe2517d3f0000000000000000000000000000000000000000000000000000000081526004016110ec929190611671565b60405180910390fd5b5050565b600080fd5b60007fffffffff0000000000000000000000000000000000000000000000000000000082169050919050565b611133816110fe565b811461113e57600080fd5b50565b6000813590506111508161112a565b92915050565b60006020828403121561116c5761116b6110f9565b5b600061117a84828501611141565b91505092915050565b60008115159050919050565b61119881611183565b82525050565b60006020820190506111b3600083018461118f565b92915050565b6000819050919050565b6111cc816111b9565b82525050565b60006020820190506111e760008301846111c3565b92915050565b6000819050919050565b611200816111ed565b811461120b57600080fd5b50565b60008135905061121d816111f7565b92915050565b600060208284031215611239576112386110f9565b5b60006112478482850161120e565b91505092915050565b611259816111ed565b82525050565b60006020820190506112746000830184611250565b92915050565b600073ffffffffffffffffffffffffffffffffffffffff82169050919050565b60006112a58261127a565b9050919050565b6112b58161129a565b81146112c057600080fd5b50565b6000813590506112d2816112ac565b92915050565b600080604083850312156112ef576112ee6110f9565b5b60006112fd8582860161120e565b925050602061130e858286016112c3565b9150509250929050565b611321816111b9565b811461132c57600080fd5b50565b60008135905061133e81611318565b92915050565b6000806040838503121561135b5761135a6110f9565b5b60006113698582860161132f565b925050602061137a8582860161132f565b9150509250929050565b7f4e487b7100000000000000000000000000000000000000000000000000000000600052602160045260246000fd5b600281106113c4576113c3611384565b5b50565b60008190506113d5826113b3565b919050565b60006113e5826113c7565b9050919050565b6113f5816113da565b82525050565b600060208201905061141060008301846113ec565b92915050565b6000819050919050565b600061143b6114366114318461127a565b611416565b61127a565b9050919050565b600061144d82611420565b9050919050565b600061145f82611442565b9050919050565b61146f81611454565b82525050565b600060208201905061148a6000830184611466565b92915050565b6000602082840312156114a6576114a56110f9565b5b60006114b48482850161132f565b91505092915050565b6000806000606084860312156114d6576114d56110f9565b5b60006114e48682870161132f565b93505060206114f5868287016112c3565b92505060406115068682870161132f565b9150509250925092565b60008060408385031215611527576115266110f9565b5b60006115358582860161120e565b92505060206115468582860161132f565b9150509250929050565b6115598161129a565b82525050565b60006040820190506115746000830185611550565b61158160208301846111c3565b9392505050565b7f4e487b7100000000000000000000000000000000000000000000000000000000600052601160045260246000fd5b60006115c2826111b9565b91506115cd836111b9565b92508282039050818111156115e5576115e4611588565b5b92915050565b600060408201905061160060008301856111c3565b61160d60208301846111c3565b9392505050565b600061161f826111b9565b915061162a836111b9565b925082820190508082111561164257611641611588565b5b92915050565b600060408201905061165d6000830185611250565b61166a60208301846111c3565b9392505050565b60006040820190506116866000830185611550565b6116936020830184611250565b939250505056fea2646970667358221220ad33c29ae7ea4d6de7bad26a16ddf77a64c1b98f046b420edc1c6acc25c9048964736f6c63430008180033",
  "linkReferences": {},
  "deployedLinkReferences": {}
}