{
  "_format": "hh-sol-artifact-1",
  "contractName": "ArgoBridgeV1",
  "sourceName": "contracts/ArgoBridgeV1.sol",
  "abi": [
    {
      "inputs": [
        {
          "internalType": "address",
          "name": "defaultAdmin",
          "type": "address"
        },
        {
          "internalType": "address",
          "name": "joystreamErc20Address",
          "type": "address"
        },
        {
          "internalType": "uint256",
          "name": "initialBridgeFee",
          "type": "uint256"
        },
        {
          "internalType": "uint256",
          "name": "initialMintingLimitPeriodLengthBlocks",
          "type": "uint256"
        },
        {
          "internalType": "uint256",
          "name": "initialMintingLimitPerPeriod",
          "type": "uint256"
        }
      ],
      "stateMutability": "nonpayable",
      "type": "constructor"
    },
    {
      "inputs": [],
      "name": "AccessControlBadConfirmation",
      "type": "error"
    },
    {
      "inputs": [
        {
          "internalType": "address",
          "name": "account",
          "type": "address"
        },
        {
          "internalType": "bytes32",
          "name": "neededRole",
          "type": "bytes32"
        }
      ],
      "name": "AccessControlUnauthorizedAccount",
      "type": "error"
    },
    {
      "inputs": [
        {
          "internalType": "uint256",
          "name": "amount",
          "type": "uint256"
        }
      ],
      "name": "ArgoBridgeInvalidAmount",
      "type": "error"
    },
    {
      "inputs": [
        {
          "internalType": "uint256",
          "name": "requiredFee",
          "type": "uint256"
        }
      ],
      "name": "ArgoBridgeInvalidFee",
      "type": "error"
    },
    {
      "inputs": [
        {
          "internalType": "uint256",
          "name": "requestedAmount",
          "type": "uint256"
        },
        {
          "internalType": "uint256",
          "name": "mintingAllowance",
          "type": "uint256"
        }
      ],
      "name": "ArgoBridgeMintingLimitReached",
      "type": "error"
    },
    {
      "inputs": [],
      "name": "ArgoBridgeNotActive",
      "type": "error"
    },
    {
      "anonymous": false,
      "inputs": [
        {
          "indexed": false,
          "internalType": "uint256",
          "name": "newFee",
          "type": "uint256"
        }
      ],
      "name": "ArgoBridgeFeeChanged",
      "type": "event"
    },
    {
      "anonymous": false,
      "inputs": [
        {
          "indexed": false,
          "internalType": "address",
          "name": "destination",
          "type": "address"
        },
        {
          "indexed": false,
          "internalType": "uint256",
          "name": "amount",
          "type": "uint256"
        }
      ],
      "name": "ArgoBridgeFeesWithdrawn",
      "type": "event"
    },
    {
      "anonymous": false,
      "inputs": [
        {
          "indexed": false,
          "internalType": "uint256",
          "name": "newMintingLimitPeriodLengthBlocks",
          "type": "uint256"
        },
        {
          "indexed": false,
          "internalType": "uint256",
          "name": "newMintingLimitPerPeriod",
          "type": "uint256"
        }
      ],
      "name": "ArgoBridgeMintingLimitsUpdated",
      "type": "event"
    },
    {
      "anonymous": false,
      "inputs": [
        {
          "indexed": false,
          "internalType": "enum ArgoBridgeV1.ArgoBridgeStatus",
          "name": "newStatus",
          "type": "uint8"
        }
      ],
      "name": "ArgoBridgeStatusChanged",
      "type": "event"
    },
    {
      "anonymous": false,
      "inputs": [
        {
          "indexed": true,
          "internalType": "uint256",
          "name": "joyTransferId",
          "type": "uint256"
        },
        {
          "indexed": true,
          "internalType": "address",
          "name": "ethDestAddress",
          "type": "address"
        },
        {
          "indexed": false,
          "internalType": "uint256",
          "name": "amount",
          "type": "uint256"
        }
      ],
      "name": "ArgoTransferToEthCompleted",
      "type": "event"
    },
    {
      "anonymous": false,
      "inputs": [
        {
          "indexed": true,
          "internalType": "uint256",
          "name": "ethTransferId",
          "type": "uint256"
        },
        {
          "indexed": true,
          "internalType": "address",
          "name": "ethRequester",
          "type": "address"
        },
        {
          "indexed": false,
          "internalType": "bytes32",
          "name": "joyDestAccount",
          "type": "bytes32"
        },
        {
          "indexed": false,
          "internalType": "uint256",
          "name": "amount",
          "type": "uint256"
        }
      ],
      "name": "ArgoTransferToJoystreamRequested",
      "type": "event"
    },
    {
      "anonymous": false,
      "inputs": [
        {
          "indexed": true,
          "internalType": "uint256",
          "name": "ethTransferId",
          "type": "uint256"
        },
        {
          "indexed": true,
          "internalType": "address",
          "name": "revertAddress",
          "type": "address"
        },
        {
          "indexed": false,
          "internalType": "uint256",
          "name": "revertAmount",
          "type": "uint256"
        },
        {
          "indexed": false,
          "internalType": "string",
          "name": "rationale",
          "type": "string"
        }
      ],
      "name": "ArgoTransferToJoystreamReverted",
      "type": "event"
    },
    {
      "anonymous": false,
      "inputs": [
        {
          "indexed": true,
          "internalType": "bytes32",
          "name": "role",
          "type": "bytes32"
        },
        {
          "indexed": true,
          "internalType": "bytes32",
          "name": "previousAdminRole",
          "type": "bytes32"
        },
        {
          "indexed": true,
          "internalType": "bytes32",
          "name": "newAdminRole",
          "type": "bytes32"
        }
      ],
      "name": "RoleAdminChanged",
      "type": "event"
    },
    {
      "anonymous": false,
      "inputs": [
        {
          "indexed": true,
          "internalType": "bytes32",
          "name": "role",
          "type": "bytes32"
        },
        {
          "indexed": true,
          "internalType": "address",
          "name": "account",
          "type": "address"
        },
        {
          "indexed": true,
          "internalType": "address",
          "name": "sender",
          "type": "address"
        }
      ],
      "name": "RoleGranted",
      "type": "event"
    },
    {
      "anonymous": false,
      "inputs": [
        {
          "indexed": true,
          "internalType": "bytes32",
          "name": "role",
          "type": "bytes32"
        },
        {
          "indexed": true,
          "internalType": "address",
          "name": "account",
          "type": "address"
        },
        {
          "indexed": true,
          "internalType": "address",
          "name": "sender",
          "type": "address"
        }
      ],
      "name": "RoleRevoked",
      "type": "event"
    },
    {
      "inputs": [],
      "name": "DEFAULT_ADMIN_ROLE",
      "outputs": [
        {
          "internalType": "bytes32",
          "name": "",
          "type": "bytes32"
        }
      ],
      "stateMutability": "view",
      "type": "function"
    },
    {
      "inputs": [],
      "name": "OPERATOR_ROLE",
      "outputs": [
        {
          "internalType": "bytes32",
          "name": "",
          "type": "bytes32"
        }
      ],
      "stateMutability": "view",
      "type": "function"
    },
    {
      "inputs": [],
      "name": "PAUSER_ROLE",
      "outputs": [
        {
          "internalType": "bytes32",
          "name": "",
          "type": "bytes32"
        }
      ],
      "stateMutability": "view",
      "type": "function"
    },
    {
      "inputs": [],
      "name": "bridgeFee",
      "outputs": [
        {
          "internalType": "uint256",
          "name": "",
          "type": "uint256"
        }
      ],
      "stateMutability": "view",
      "type": "function"
    },
    {
      "inputs": [],
      "name": "bridgeStatus",
      "outputs": [
        {
          "internalType": "enum ArgoBridgeV1.ArgoBridgeStatus",
          "name": "",
          "type": "uint8"
        }
      ],
      "stateMutability": "view",
      "type": "function"
    },
    {
      "inputs": [
        {
          "internalType": "uint256",
          "name": "joyTransferId",
          "type": "uint256"
        },
        {
          "internalType": "address",
          "name": "ethDestAddress",
          "type": "address"
        },
        {
          "internalType": "uint256",
          "name": "amount",
          "type": "uint256"
        }
      ],
      "name": "completeTransferToEth",
      "outputs": [],
      "stateMutability": "nonpayable",
      "type": "function"
    },
    {
      "inputs": [],
      "name": "currentMintingPeriodEndBlock",
      "outputs": [
        {
          "internalType": "uint256",
          "name": "",
          "type": "uint256"
        }
      ],
      "stateMutability": "view",
      "type": "function"
    },
    {
      "inputs": [],
      "name": "currentMintingPeriodMinted",
      "outputs": [
        {
          "internalType": "uint256",
          "name": "",
          "type": "uint256"
        }
      ],
      "stateMutability": "view",
      "type": "function"
    },
    {
      "inputs": [
        {
          "internalType": "bytes32",
          "name": "role",
          "type": "bytes32"
        }
      ],
      "name": "getRoleAdmin",
      "outputs": [
        {
          "internalType": "bytes32",
          "name": "",
          "type": "bytes32"
        }
      ],
      "stateMutability": "view",
      "type": "function"
    },
    {
      "inputs": [
        {
          "internalType": "bytes32",
          "name": "role",
          "type": "bytes32"
        },
        {
          "internalType": "address",
          "name": "account",
          "type": "address"
        }
      ],
      "name": "grantRole",
      "outputs": [],
      "stateMutability": "nonpayable",
      "type": "function"
    },
    {
      "inputs": [
        {
          "internalType": "bytes32",
          "name": "role",
          "type": "bytes32"
        },
        {
          "internalType": "address",
          "name": "account",
          "type": "address"
        }
      ],
      "name": "hasRole",
      "outputs": [
        {
          "internalType": "bool",
          "name": "",
          "type": "bool"
        }
      ],
      "stateMutability": "view",
      "type": "function"
    },
    {
      "inputs": [],
      "name": "joystreamErc20",
      "outputs": [
        {
          "internalType": "contract JoystreamERC20",
          "name": "",
          "type": "address"
        }
      ],
      "stateMutability": "view",
      "type": "function"
    },
    {
      "inputs": [],
      "name": "mintingLimitPerPeriod",
      "outputs": [
        {
          "internalType": "uint256",
          "name": "",
          "type": "uint256"
        }
      ],
      "stateMutability": "view",
      "type": "function"
    },
    {
      "inputs": [],
      "name": "mintingLimitPeriodLengthBlocks",
      "outputs": [
        {
          "internalType": "uint256",
          "name": "",
          "type": "uint256"
        }
      ],
      "stateMutability": "view",
      "type": "function"
    },
    {
      "inputs": [],
      "name": "pauseBridge",
      "outputs": [],
      "stateMutability": "nonpayable",
      "type": "function"
    },
    {
      "inputs": [
        {
          "internalType": "bytes32",
          "name": "role",
          "type": "bytes32"
        },
        {
          "internalType": "address",
          "name": "callerConfirmation",
          "type": "address"
        }
      ],
      "name": "renounceRole",
      "outputs": [],
      "stateMutability": "nonpayable",
      "type": "function"
    },
    {
      "inputs": [
        {
          "internalType": "bytes32",
          "name": "joyDestAccount",
          "type": "bytes32"
        },
        {
          "internalType": "uint256",
          "name": "amount",
          "type": "uint256"
        }
      ],
      "name": "requestTransferToJoystream",
      "outputs": [],
      "stateMutability": "payable",
      "type": "function"
    },
    {
      "inputs": [
        {
          "internalType": "uint256",
          "name": "ethTransferId",
          "type": "uint256"
        },
        {
          "internalType": "address",
          "name": "revertAddress",
          "type": "address"
        },
        {
          "internalType": "uint256",
          "name": "revertAmount",
          "type": "uint256"
        },
        {
          "internalType": "string",
          "name": "rationale",
          "type": "string"
        }
      ],
      "name": "revertTransferToJoystream",
      "outputs": [],
      "stateMutability": "nonpayable",
      "type": "function"
    },
    {
      "inputs": [
        {
          "internalType": "bytes32",
          "name": "role",
          "type": "bytes32"
        },
        {
          "internalType": "address",
          "name": "account",
          "type": "address"
        }
      ],
      "name": "revokeRole",
      "outputs": [],
      "stateMutability": "nonpayable",
      "type": "function"
    },
    {
      "inputs": [
        {
          "internalType": "uint256",
          "name": "newBridgeFee",
          "type": "uint256"
        }
      ],
      "name": "setBridgeFee",
      "outputs": [],
      "stateMutability": "nonpayable",
      "type": "function"
    },
    {
      "inputs": [
        {
          "internalType": "uint256",
          "name": "newMintingLimitPeriodLengthBlocks",
          "type": "uint256"
        },
        {
          "internalType": "uint256",
          "name": "newMintingLimitPerPeriod",
          "type": "uint256"
        }
      ],
      "name": "setMintingLimits",
      "outputs": [],
      "stateMutability": "nonpayable",
      "type": "function"
    },
    {
      "inputs": [
        {
          "internalType": "bytes4",
          "name": "interfaceId",
          "type": "bytes4"
        }
      ],
      "name": "supportsInterface",
      "outputs": [
        {
          "internalType": "bool",
          "name": "",
          "type": "bool"
        }
      ],
      "stateMutability": "view",
      "type": "function"
    },
    {
      "inputs": [],
      "name": "unpauseBridge",
      "outputs": [],
      "stateMutability": "nonpayable",
      "type": "function"
    },
    {
      "inputs": [],
      "name": "withdrawBridgeFees",
      "outputs": [],
      "stateMutability": "nonpayable",
      "type": "function"
    }
  ],
  "bytecode": "0x60a060405260018060006101000a81548160ff021916908360018111156200002c576200002b62000301565b5b0217905550600060035560006007553480156200004857600080fd5b50604051620020e7380380620020e783398181016040528101906200006e9190620003d5565b620000836000801b86620000fc60201b60201c565b508373ffffffffffffffffffffffffffffffffffffffff1660808173ffffffffffffffffffffffffffffffffffffffff1681525050620000c983620001ff60201b60201c565b620000db82826200024260201b60201c565b60045443620000eb91906200048c565b600681905550505050505062000522565b60006200011083836200028f60201b60201c565b620001f457600160008085815260200190815260200160002060000160008473ffffffffffffffffffffffffffffffffffffffff1673ffffffffffffffffffffffffffffffffffffffff16815260200190815260200160002060006101000a81548160ff02191690831515021790555062000190620002f960201b60201c565b73ffffffffffffffffffffffffffffffffffffffff168273ffffffffffffffffffffffffffffffffffffffff16847f2f8788117e7eff1d82e926ec794901d17c78024a50270940304540a733656f0d60405160405180910390a460019050620001f9565b600090505b92915050565b806002819055507f9d699f862acc3d76830ba2f9d1efc23c25190e4309f64c091cffc65230fe568f81604051620002379190620004d8565b60405180910390a150565b81600481905550806005819055507fc01acf06a73b9c6b1e27941f05c5a9e8f8132593e96d257da8869304c6236f69828260405162000283929190620004f5565b60405180910390a15050565b600080600084815260200190815260200160002060000160008373ffffffffffffffffffffffffffffffffffffffff1673ffffffffffffffffffffffffffffffffffffffff16815260200190815260200160002060009054906101000a900460ff16905092915050565b600033905090565b7f4e487b7100000000000000000000000000000000000000000000000000000000600052602160045260246000fd5b600080fd5b600073ffffffffffffffffffffffffffffffffffffffff82169050919050565b6000620003628262000335565b9050919050565b620003748162000355565b81146200038057600080fd5b50565b600081519050620003948162000369565b92915050565b6000819050919050565b620003af816200039a565b8114620003bb57600080fd5b50565b600081519050620003cf81620003a4565b92915050565b600080600080600060a08688031215620003f457620003f362000330565b5b6000620004048882890162000383565b9550506020620004178882890162000383565b94505060406200042a88828901620003be565b93505060606200043d88828901620003be565b92505060806200045088828901620003be565b9150509295509295909350565b7f4e487b7100000000000000000000000000000000000000000000000000000000600052601160045260246000fd5b600062000499826200039a565b9150620004a6836200039a565b9250828201905080821115620004c157620004c06200045d565b5b92915050565b620004d2816200039a565b82525050565b6000602082019050620004ef6000830184620004c7565b92915050565b60006040820190506200050c6000830185620004c7565b6200051b6020830184620004c7565b9392505050565b608051611b9462000553600039600081816106e00152818161099601528181610c770152610e8f0152611b946000f3fe60806040526004361061014b5760003560e01c8063865f87ac116100b6578063b4ed71451161006f578063b4ed71451461045a578063c194116f14610471578063d547741f1461049a578063e63ab1e9146104c3578063f5b541a6146104ee578063ff926998146105195761014b565b8063865f87ac1461035c578063890ef5921461038757806391d14854146103b2578063998cdf83146103ef578063a217fddf14610418578063a82f143c146104435761014b565b8063447117b411610108578063447117b4146102705780635cfb2ad21461029b5780637dd0480f146102c657806382ac7008146102dd57806382b12dd71461030857806384f302f1146103335761014b565b806301ffc9a714610150578063120da5081461018d57806322e4ca23146101b8578063248a9ca3146101e15780632f2ff15d1461021e57806336568abe14610247575b600080fd5b34801561015c57600080fd5b50610177600480360381019061017291906113a2565b610535565b60405161018491906113ea565b60405180910390f35b34801561019957600080fd5b506101a26105af565b6040516101af919061141e565b60405180910390f35b3480156101c457600080fd5b506101df60048036038101906101da9190611609565b6105b5565b005b3480156101ed57600080fd5b50610208600480360381019061020391906116c2565b6107c4565b60405161021591906116fe565b60405180910390f35b34801561022a57600080fd5b5061024560048036038101906102409190611719565b6107e3565b005b34801561025357600080fd5b5061026e60048036038101906102699190611719565b610805565b005b34801561027c57600080fd5b50610285610880565b604051610292919061141e565b60405180910390f35b3480156102a757600080fd5b506102b0610886565b6040516102bd919061141e565b60405180910390f35b3480156102d257600080fd5b506102db61088c565b005b3480156102e957600080fd5b506102f2610959565b6040516102ff919061141e565b60405180910390f35b34801561031457600080fd5b5061031d61095f565b60405161032a919061141e565b60405180910390f35b34801561033f57600080fd5b5061035a60048036038101906103559190611759565b610965565b005b34801561036857600080fd5b50610371610981565b60405161037e9190611810565b60405180910390f35b34801561039357600080fd5b5061039c610994565b6040516103a9919061188a565b60405180910390f35b3480156103be57600080fd5b506103d960048036038101906103d49190611719565b6109b8565b6040516103e691906113ea565b60405180910390f35b3480156103fb57600080fd5b50610416600480360381019061041191906118a5565b610a22565b005b34801561042457600080fd5b5061042d610a3c565b60405161043a91906116fe565b60405180910390f35b34801561044f57600080fd5b50610458610a43565b005b34801561046657600080fd5b5061046f610ab6565b005b34801561047d57600080fd5b50610498600480360381019061049391906118d2565b610b4c565b005b3480156104a657600080fd5b506104c160048036038101906104bc9190611719565b610d58565b005b3480156104cf57600080fd5b506104d8610d7a565b6040516104e591906116fe565b60405180910390f35b3480156104fa57600080fd5b50610503610d9e565b60405161051091906116fe565b60405180910390f35b610533600480360381019061052e9190611925565b610dc2565b005b60007f7965db0b000000000000000000000000000000000000000000000000000000007bffffffffffffffffffffffffffffffffffffffffffffffffffffffff1916827bffffffffffffffffffffffffffffffffffffffffffffffffffffffff191614806105a857506105a782610f8b565b5b9050919050565b60075481565b7f97667070c54ef182b0f5858b034beac1b6f3089aa2d3188bb1e8929f4fa9b9296105df81610ff5565b6105e7611009565b61061d576040517f492fe4b900000000000000000000000000000000000000000000000000000000815260040160405180910390fd5b6000830361066257826040517f2dc2b0cc000000000000000000000000000000000000000000000000000000008152600401610659919061141e565b60405180910390fd5b61066a611046565b600060075460055461067c9190611994565b9050808411156106c55783816040517fd0b063f00000000000000000000000000000000000000000000000000000000081526004016106bc9291906119c8565b60405180910390fd5b83600760008282546106d791906119f1565b925050819055507f000000000000000000000000000000000000000000000000000000000000000073ffffffffffffffffffffffffffffffffffffffff166340c10f1986866040518363ffffffff1660e01b8152600401610739929190611a34565b600060405180830381600087803b15801561075357600080fd5b505af1158015610767573d6000803e3d6000fd5b505050508473ffffffffffffffffffffffffffffffffffffffff16867fa25b21b9fa597e02e957bf452497316423b937661dfa0b53f2c89d5e43725d4386866040516107b4929190611adc565b60405180910390a3505050505050565b6000806000838152602001908152602001600020600101549050919050565b6107ec826107c4565b6107f581610ff5565b6107ff838361106e565b50505050565b61080d61115f565b73ffffffffffffffffffffffffffffffffffffffff168173ffffffffffffffffffffffffffffffffffffffff1614610871576040517f6697b23200000000000000000000000000000000000000000000000000000000815260040160405180910390fd5b61087b8282611167565b505050565b60065481565b60045481565b7f65d7a28e3265b37a6474929f336521b332c1681b933f6cb9f3376673440d862a6108b681610ff5565b6108be611009565b6108f4576040517f492fe4b900000000000000000000000000000000000000000000000000000000815260040160405180910390fd5b60018060006101000a81548160ff0219169083600181111561091957610918611799565b5b02179055507f674a79b744f31247a99ff1ed4a383c0c77299efbdb099b5f69a75077aa3872ae600160405161094e9190611810565b60405180910390a150565b60055481565b60025481565b6000801b61097281610ff5565b61097c8383611259565b505050565b600160009054906101000a900460ff1681565b7f000000000000000000000000000000000000000000000000000000000000000081565b600080600084815260200190815260200160002060000160008373ffffffffffffffffffffffffffffffffffffffff1673ffffffffffffffffffffffffffffffffffffffff16815260200190815260200160002060009054906101000a900460ff16905092915050565b6000801b610a2f81610ff5565b610a38826112a4565b5050565b6000801b81565b6000801b610a5081610ff5565b6000600160006101000a81548160ff02191690836001811115610a7657610a75611799565b5b02179055507f674a79b744f31247a99ff1ed4a383c0c77299efbdb099b5f69a75077aa3872ae6000604051610aab9190611810565b60405180910390a150565b6000801b610ac381610ff5565b60004790503373ffffffffffffffffffffffffffffffffffffffff166108fc829081150290604051600060405180830381858888f19350505050158015610b0e573d6000803e3d6000fd5b507f120c23ad9d3d7272a0d20dd6b7a2822584daf524e67963daa6a7d47b7576a8163382604051610b40929190611a34565b60405180910390a15050565b7f97667070c54ef182b0f5858b034beac1b6f3089aa2d3188bb1e8929f4fa9b929610b7681610ff5565b610b7e611009565b610bb4576040517f492fe4b900000000000000000000000000000000000000000000000000000000815260040160405180910390fd5b60008203610bf957816040517f2dc2b0cc000000000000000000000000000000000000000000000000000000008152600401610bf0919061141e565b60405180910390fd5b610c01611046565b6000600754600554610c139190611994565b905080831115610c5c5782816040517fd0b063f0000000000000000000000000000000000000000000000000000000008152600401610c539291906119c8565b60405180910390fd5b8260076000828254610c6e91906119f1565b925050819055507f000000000000000000000000000000000000000000000000000000000000000073ffffffffffffffffffffffffffffffffffffffff166340c10f1985856040518363ffffffff1660e01b8152600401610cd0929190611a34565b600060405180830381600087803b158015610cea57600080fd5b505af1158015610cfe573d6000803e3d6000fd5b505050508373ffffffffffffffffffffffffffffffffffffffff16857f7e23ecf974046609d9a1de48d379cfca42f21df5a2a1a061dc97468705e44ec285604051610d49919061141e565b60405180910390a35050505050565b610d61826107c4565b610d6a81610ff5565b610d748383611167565b50505050565b7f65d7a28e3265b37a6474929f336521b332c1681b933f6cb9f3376673440d862a81565b7f97667070c54ef182b0f5858b034beac1b6f3089aa2d3188bb1e8929f4fa9b92981565b610dca611009565b610e00576040517f492fe4b900000000000000000000000000000000000000000000000000000000815260040160405180910390fd5b6002543414610e48576002546040517fee18ec47000000000000000000000000000000000000000000000000000000008152600401610e3f919061141e565b60405180910390fd5b60008103610e8d57806040517f2dc2b0cc000000000000000000000000000000000000000000000000000000008152600401610e84919061141e565b60405180910390fd5b7f000000000000000000000000000000000000000000000000000000000000000073ffffffffffffffffffffffffffffffffffffffff166379cc679033836040518363ffffffff1660e01b8152600401610ee8929190611a34565b600060405180830381600087803b158015610f0257600080fd5b505af1158015610f16573d6000803e3d6000fd5b505050503373ffffffffffffffffffffffffffffffffffffffff166003547f82faa25a69607faadf0963495313e5c2b60799b5c3a65e35d850b77e73b79f6d8484604051610f65929190611b0c565b60405180910390a3600160036000828254610f8091906119f1565b925050819055505050565b60007f01ffc9a7000000000000000000000000000000000000000000000000000000007bffffffffffffffffffffffffffffffffffffffffffffffffffffffff1916827bffffffffffffffffffffffffffffffffffffffffffffffffffffffff1916149050919050565b6110068161100161115f565b6112e5565b50565b600080600181111561101e5761101d611799565b5b600160009054906101000a900460ff1660018111156110405761103f611799565b5b14905090565b600654431061106c576004544361105d91906119f1565b60068190555060006007819055505b565b600061107a83836109b8565b61115457600160008085815260200190815260200160002060000160008473ffffffffffffffffffffffffffffffffffffffff1673ffffffffffffffffffffffffffffffffffffffff16815260200190815260200160002060006101000a81548160ff0219169083151502179055506110f161115f565b73ffffffffffffffffffffffffffffffffffffffff168273ffffffffffffffffffffffffffffffffffffffff16847f2f8788117e7eff1d82e926ec794901d17c78024a50270940304540a733656f0d60405160405180910390a460019050611159565b600090505b92915050565b600033905090565b600061117383836109b8565b1561124e57600080600085815260200190815260200160002060000160008473ffffffffffffffffffffffffffffffffffffffff1673ffffffffffffffffffffffffffffffffffffffff16815260200190815260200160002060006101000a81548160ff0219169083151502179055506111eb61115f565b73ffffffffffffffffffffffffffffffffffffffff168273ffffffffffffffffffffffffffffffffffffffff16847ff6391f5c32d9c69d2a47ea670b442974b53935d1edc7fd64eb21e047a839171b60405160405180910390a460019050611253565b600090505b92915050565b81600481905550806005819055507fc01acf06a73b9c6b1e27941f05c5a9e8f8132593e96d257da8869304c6236f6982826040516112989291906119c8565b60405180910390a15050565b806002819055507f9d699f862acc3d76830ba2f9d1efc23c25190e4309f64c091cffc65230fe568f816040516112da919061141e565b60405180910390a150565b6112ef82826109b8565b6113325780826040517fe2517d3f000000000000000000000000000000000000000000000000000000008152600401611329929190611b35565b60405180910390fd5b5050565b6000604051905090565b600080fd5b600080fd5b60007fffffffff0000000000000000000000000000000000000000000000000000000082169050919050565b61137f8161134a565b811461138a57600080fd5b50565b60008135905061139c81611376565b92915050565b6000602082840312156113b8576113b7611340565b5b60006113c68482850161138d565b91505092915050565b60008115159050919050565b6113e4816113cf565b82525050565b60006020820190506113ff60008301846113db565b92915050565b6000819050919050565b61141881611405565b82525050565b6000602082019050611433600083018461140f565b92915050565b61144281611405565b811461144d57600080fd5b50565b60008135905061145f81611439565b92915050565b600073ffffffffffffffffffffffffffffffffffffffff82169050919050565b600061149082611465565b9050919050565b6114a081611485565b81146114ab57600080fd5b50565b6000813590506114bd81611497565b92915050565b600080fd5b600080fd5b6000601f19601f8301169050919050565b7f4e487b7100000000000000000000000000000000000000000000000000000000600052604160045260246000fd5b611516826114cd565b810181811067ffffffffffffffff82111715611535576115346114de565b5b80604052505050565b6000611548611336565b9050611554828261150d565b919050565b600067ffffffffffffffff821115611574576115736114de565b5b61157d826114cd565b9050602081019050919050565b82818337600083830152505050565b60006115ac6115a784611559565b61153e565b9050828152602081018484840111156115c8576115c76114c8565b5b6115d384828561158a565b509392505050565b600082601f8301126115f0576115ef6114c3565b5b8135611600848260208601611599565b91505092915050565b6000806000806080858703121561162357611622611340565b5b600061163187828801611450565b9450506020611642878288016114ae565b935050604061165387828801611450565b925050606085013567ffffffffffffffff81111561167457611673611345565b5b611680878288016115db565b91505092959194509250565b6000819050919050565b61169f8161168c565b81146116aa57600080fd5b50565b6000813590506116bc81611696565b92915050565b6000602082840312156116d8576116d7611340565b5b60006116e6848285016116ad565b91505092915050565b6116f88161168c565b82525050565b600060208201905061171360008301846116ef565b92915050565b600080604083850312156117305761172f611340565b5b600061173e858286016116ad565b925050602061174f858286016114ae565b9150509250929050565b600080604083850312156117705761176f611340565b5b600061177e85828601611450565b925050602061178f85828601611450565b9150509250929050565b7f4e487b7100000000000000000000000000000000000000000000000000000000600052602160045260246000fd5b600281106117d9576117d8611799565b5b50565b60008190506117ea826117c8565b919050565b60006117fa826117dc565b9050919050565b61180a816117ef565b82525050565b60006020820190506118256000830184611801565b92915050565b6000819050919050565b600061185061184b61184684611465565b61182b565b611465565b9050919050565b600061186282611835565b9050919050565b600061187482611857565b9050919050565b61188481611869565b82525050565b600060208201905061189f600083018461187b565b92915050565b6000602082840312156118bb576118ba611340565b5b60006118c984828501611450565b91505092915050565b6000806000606084860312156118eb576118ea611340565b5b60006118f986828701611450565b935050602061190a868287016114ae565b925050604061191b86828701611450565b9150509250925092565b6000806040838503121561193c5761193b611340565b5b600061194a858286016116ad565b925050602061195b85828601611450565b9150509250929050565b7f4e487b7100000000000000000000000000000000000000000000000000000000600052601160045260246000fd5b600061199f82611405565b91506119aa83611405565b92508282039050818111156119c2576119c1611965565b5b92915050565b60006040820190506119dd600083018561140f565b6119ea602083018461140f565b9392505050565b60006119fc82611405565b9150611a0783611405565b9250828201905080821115611a1f57611a1e611965565b5b92915050565b611a2e81611485565b82525050565b6000604082019050611a496000830185611a25565b611a56602083018461140f565b9392505050565b600081519050919050565b600082825260208201905092915050565b60005b83811015611a97578082015181840152602081019050611a7c565b60008484015250505050565b6000611aae82611a5d565b611ab88185611a68565b9350611ac8818560208601611a79565b611ad1816114cd565b840191505092915050565b6000604082019050611af1600083018561140f565b8181036020830152611b038184611aa3565b90509392505050565b6000604082019050611b2160008301856116ef565b611b2e602083018461140f565b9392505050565b6000604082019050611b4a6000830185611a25565b611b5760208301846116ef565b939250505056fea264697066735822122017722243b11eb77f654b5d3d9763bb0f14d2032f543be207bf8f0720f369de6a64736f6c63430008180033",
  "linkReferences": {},
  "deployedLinkReferences": {}
}