{
  "_format": "hh-sol-artifact-1",
  "contractName": "ArgoBridgeV1",
  "sourceName": "contracts/ArgoBridgeV1.sol",
  "abi": [
    {
      "inputs": [
        {
          "internalType": "address",
          "name": "defaultAdmin",
          "type": "address"
        },
        {
          "internalType": "address",
          "name": "joystreamErc20Address",
          "type": "address"
        },
        {
          "internalType": "uint256",
          "name": "initialBridgeFee",
          "type": "uint256"
        },
        {
          "internalType": "uint256",
          "name": "initialMintingLimitPeriodLengthBlocks",
          "type": "uint256"
        },
        {
          "internalType": "uint256",
          "name": "initialMintingLimitPerPeriod",
          "type": "uint256"
        }
      ],
      "stateMutability": "nonpayable",
      "type": "constructor"
    },
    {
      "inputs": [],
      "name": "AccessControlBadConfirmation",
      "type": "error"
    },
    {
      "inputs": [
        {
          "internalType": "address",
          "name": "account",
          "type": "address"
        },
        {
          "internalType": "bytes32",
          "name": "neededRole",
          "type": "bytes32"
        }
      ],
      "name": "AccessControlUnauthorizedAccount",
      "type": "error"
    },
    {
      "inputs": [
        {
          "internalType": "uint256",
          "name": "amount",
          "type": "uint256"
        }
      ],
      "name": "ArgoBridgeInvalidAmount",
      "type": "error"
    },
    {
      "inputs": [
        {
          "internalType": "uint256",
          "name": "requiredFee",
          "type": "uint256"
        }
      ],
      "name": "ArgoBridgeInvalidFee",
      "type": "error"
    },
    {
      "inputs": [
        {
          "internalType": "uint256",
          "name": "requestedAmount",
          "type": "uint256"
        },
        {
          "internalType": "uint256",
          "name": "mintingAllowance",
          "type": "uint256"
        }
      ],
      "name": "ArgoBridgeMintingLimitReached",
      "type": "error"
    },
    {
      "inputs": [],
      "name": "ArgoBridgeNotActive",
      "type": "error"
    },
    {
      "anonymous": false,
      "inputs": [
        {
          "indexed": false,
          "internalType": "uint256",
          "name": "newFee",
          "type": "uint256"
        }
      ],
      "name": "ArgoBridgeFeeChanged",
      "type": "event"
    },
    {
      "anonymous": false,
      "inputs": [
        {
          "indexed": false,
          "internalType": "address",
          "name": "destination",
          "type": "address"
        },
        {
          "indexed": false,
          "internalType": "uint256",
          "name": "amount",
          "type": "uint256"
        }
      ],
      "name": "ArgoBridgeFeesWithdrawn",
      "type": "event"
    },
    {
      "anonymous": false,
      "inputs": [
        {
          "indexed": false,
          "internalType": "uint256",
          "name": "newMintingLimitPeriodLengthBlocks",
          "type": "uint256"
        },
        {
          "indexed": false,
          "internalType": "uint256",
          "name": "newMintingLimitPerPeriod",
          "type": "uint256"
        }
      ],
      "name": "ArgoBridgeMintingLimitsUpdated",
      "type": "event"
    },
    {
      "anonymous": false,
      "inputs": [
        {
          "indexed": false,
          "internalType": "enum ArgoBridgeV1.ArgoBridgeStatus",
          "name": "newStatus",
          "type": "uint8"
        }
      ],
      "name": "ArgoBridgeStatusChanged",
      "type": "event"
    },
    {
      "anonymous": false,
      "inputs": [
        {
          "indexed": true,
          "internalType": "uint256",
          "name": "joyTransferId",
          "type": "uint256"
        },
        {
          "indexed": true,
          "internalType": "address",
          "name": "ethDestAddress",
          "type": "address"
        },
        {
          "indexed": false,
          "internalType": "uint256",
          "name": "amount",
          "type": "uint256"
        }
      ],
      "name": "ArgoTransferToEthCompleted",
      "type": "event"
    },
    {
      "anonymous": false,
      "inputs": [
        {
          "indexed": true,
          "internalType": "uint256",
          "name": "ethTransferId",
          "type": "uint256"
        },
        {
          "indexed": true,
          "internalType": "address",
          "name": "ethRequester",
          "type": "address"
        },
        {
          "indexed": false,
          "internalType": "bytes32",
          "name": "joyDestAccount",
          "type": "bytes32"
        },
        {
          "indexed": false,
          "internalType": "uint256",
          "name": "amount",
          "type": "uint256"
        }
      ],
      "name": "ArgoTransferToJoystreamRequested",
      "type": "event"
    },
    {
      "anonymous": false,
      "inputs": [
        {
          "indexed": true,
          "internalType": "uint256",
          "name": "ethTransferId",
          "type": "uint256"
        },
        {
          "indexed": true,
          "internalType": "address",
          "name": "revertAddress",
          "type": "address"
        },
        {
          "indexed": false,
          "internalType": "uint256",
          "name": "revertAmount",
          "type": "uint256"
        },
        {
          "indexed": false,
          "internalType": "string",
          "name": "rationale",
          "type": "string"
        }
      ],
      "name": "ArgoTransferToJoystreamReverted",
      "type": "event"
    },
    {
      "anonymous": false,
      "inputs": [
        {
          "indexed": true,
          "internalType": "bytes32",
          "name": "role",
          "type": "bytes32"
        },
        {
          "indexed": true,
          "internalType": "bytes32",
          "name": "previousAdminRole",
          "type": "bytes32"
        },
        {
          "indexed": true,
          "internalType": "bytes32",
          "name": "newAdminRole",
          "type": "bytes32"
        }
      ],
      "name": "RoleAdminChanged",
      "type": "event"
    },
    {
      "anonymous": false,
      "inputs": [
        {
          "indexed": true,
          "internalType": "bytes32",
          "name": "role",
          "type": "bytes32"
        },
        {
          "indexed": true,
          "internalType": "address",
          "name": "account",
          "type": "address"
        },
        {
          "indexed": true,
          "internalType": "address",
          "name": "sender",
          "type": "address"
        }
      ],
      "name": "RoleGranted",
      "type": "event"
    },
    {
      "anonymous": false,
      "inputs": [
        {
          "indexed": true,
          "internalType": "bytes32",
          "name": "role",
          "type": "bytes32"
        },
        {
          "indexed": true,
          "internalType": "address",
          "name": "account",
          "type": "address"
        },
        {
          "indexed": true,
          "internalType": "address",
          "name": "sender",
          "type": "address"
        }
      ],
      "name": "RoleRevoked",
      "type": "event"
    },
    {
      "inputs": [],
      "name": "DEFAULT_ADMIN_ROLE",
      "outputs": [
        {
          "internalType": "bytes32",
          "name": "",
          "type": "bytes32"
        }
      ],
      "stateMutability": "view",
      "type": "function"
    },
    {
      "inputs": [],
      "name": "OPERATOR_ROLE",
      "outputs": [
        {
          "internalType": "bytes32",
          "name": "",
          "type": "bytes32"
        }
      ],
      "stateMutability": "view",
      "type": "function"
    },
    {
      "inputs": [],
      "name": "PAUSER_ROLE",
      "outputs": [
        {
          "internalType": "bytes32",
          "name": "",
          "type": "bytes32"
        }
      ],
      "stateMutability": "view",
      "type": "function"
    },
    {
      "inputs": [],
      "name": "bridgeFee",
      "outputs": [
        {
          "internalType": "uint256",
          "name": "",
          "type": "uint256"
        }
      ],
      "stateMutability": "view",
      "type": "function"
    },
    {
      "inputs": [],
      "name": "bridgeStatus",
      "outputs": [
        {
          "internalType": "enum ArgoBridgeV1.ArgoBridgeStatus",
          "name": "",
          "type": "uint8"
        }
      ],
      "stateMutability": "view",
      "type": "function"
    },
    {
      "inputs": [
        {
          "internalType": "uint256",
          "name": "joyTransferId",
          "type": "uint256"
        },
        {
          "internalType": "address",
          "name": "ethDestAddress",
          "type": "address"
        },
        {
          "internalType": "uint256",
          "name": "amount",
          "type": "uint256"
        }
      ],
      "name": "completeTransferToEth",
      "outputs": [],
      "stateMutability": "nonpayable",
      "type": "function"
    },
    {
      "inputs": [],
      "name": "currentMintingPeriodEndBlock",
      "outputs": [
        {
          "internalType": "uint256",
          "name": "",
          "type": "uint256"
        }
      ],
      "stateMutability": "view",
      "type": "function"
    },
    {
      "inputs": [],
      "name": "currentMintingPeriodMinted",
      "outputs": [
        {
          "internalType": "uint256",
          "name": "",
          "type": "uint256"
        }
      ],
      "stateMutability": "view",
      "type": "function"
    },
    {
      "inputs": [
        {
          "internalType": "bytes32",
          "name": "role",
          "type": "bytes32"
        }
      ],
      "name": "getRoleAdmin",
      "outputs": [
        {
          "internalType": "bytes32",
          "name": "",
          "type": "bytes32"
        }
      ],
      "stateMutability": "view",
      "type": "function"
    },
    {
      "inputs": [
        {
          "internalType": "bytes32",
          "name": "role",
          "type": "bytes32"
        },
        {
          "internalType": "address",
          "name": "account",
          "type": "address"
        }
      ],
      "name": "grantRole",
      "outputs": [],
      "stateMutability": "nonpayable",
      "type": "function"
    },
    {
      "inputs": [
        {
          "internalType": "bytes32",
          "name": "role",
          "type": "bytes32"
        },
        {
          "internalType": "address",
          "name": "account",
          "type": "address"
        }
      ],
      "name": "hasRole",
      "outputs": [
        {
          "internalType": "bool",
          "name": "",
          "type": "bool"
        }
      ],
      "stateMutability": "view",
      "type": "function"
    },
    {
      "inputs": [],
      "name": "joystreamErc20",
      "outputs": [
        {
          "internalType": "contract JoystreamERC20",
          "name": "",
          "type": "address"
        }
      ],
      "stateMutability": "view",
      "type": "function"
    },
    {
      "inputs": [],
      "name": "mintingLimitPerPeriod",
      "outputs": [
        {
          "internalType": "uint256",
          "name": "",
          "type": "uint256"
        }
      ],
      "stateMutability": "view",
      "type": "function"
    },
    {
      "inputs": [],
      "name": "mintingLimitPeriodLengthBlocks",
      "outputs": [
        {
          "internalType": "uint256",
          "name": "",
          "type": "uint256"
        }
      ],
      "stateMutability": "view",
      "type": "function"
    },
    {
      "inputs": [],
      "name": "pauseBridge",
      "outputs": [],
      "stateMutability": "nonpayable",
      "type": "function"
    },
    {
      "inputs": [
        {
          "internalType": "bytes32",
          "name": "role",
          "type": "bytes32"
        },
        {
          "internalType": "address",
          "name": "callerConfirmation",
          "type": "address"
        }
      ],
      "name": "renounceRole",
      "outputs": [],
      "stateMutability": "nonpayable",
      "type": "function"
    },
    {
      "inputs": [
        {
          "internalType": "bytes32",
          "name": "joyDestAccount",
          "type": "bytes32"
        },
        {
          "internalType": "uint256",
          "name": "amount",
          "type": "uint256"
        }
      ],
      "name": "requestTransferToJoystream",
      "outputs": [],
      "stateMutability": "payable",
      "type": "function"
    },
    {
      "inputs": [
        {
          "internalType": "uint256",
          "name": "ethTransferId",
          "type": "uint256"
        },
        {
          "internalType": "address",
          "name": "revertAddress",
          "type": "address"
        },
        {
          "internalType": "uint256",
          "name": "revertAmount",
          "type": "uint256"
        },
        {
          "internalType": "string",
          "name": "rationale",
          "type": "string"
        }
      ],
      "name": "revertTransferToJoystream",
      "outputs": [],
      "stateMutability": "nonpayable",
      "type": "function"
    },
    {
      "inputs": [
        {
          "internalType": "bytes32",
          "name": "role",
          "type": "bytes32"
        },
        {
          "internalType": "address",
          "name": "account",
          "type": "address"
        }
      ],
      "name": "revokeRole",
      "outputs": [],
      "stateMutability": "nonpayable",
      "type": "function"
    },
    {
      "inputs": [
        {
          "internalType": "uint256",
          "name": "newBridgeFee",
          "type": "uint256"
        }
      ],
      "name": "setBridgeFee",
      "outputs": [],
      "stateMutability": "nonpayable",
      "type": "function"
    },
    {
      "inputs": [
        {
          "internalType": "uint256",
          "name": "newMintingLimitPeriodLengthBlocks",
          "type": "uint256"
        },
        {
          "internalType": "uint256",
          "name": "newMintingLimitPerPeriod",
          "type": "uint256"
        }
      ],
      "name": "setMintingLimits",
      "outputs": [],
      "stateMutability": "nonpayable",
      "type": "function"
    },
    {
      "inputs": [
        {
          "internalType": "bytes4",
          "name": "interfaceId",
          "type": "bytes4"
        }
      ],
      "name": "supportsInterface",
      "outputs": [
        {
          "internalType": "bool",
          "name": "",
          "type": "bool"
        }
      ],
      "stateMutability": "view",
      "type": "function"
    },
    {
      "inputs": [],
      "name": "unpauseBridge",
      "outputs": [],
      "stateMutability": "nonpayable",
      "type": "function"
    },
    {
      "inputs": [],
      "name": "withdrawBridgeFees",
      "outputs": [],
      "stateMutability": "nonpayable",
      "type": "function"
    }
  ],
  "bytecode": "0x608060405260018060006101000a81548160ff021916908360018111156200002c576200002b6200030e565b5b0217905550600060045560006008553480156200004857600080fd5b50604051620020db380380620020db83398181016040528101906200006e9190620003e2565b620000836000801b866200010960201b60201c565b5083600360006101000a81548173ffffffffffffffffffffffffffffffffffffffff021916908373ffffffffffffffffffffffffffffffffffffffff160217905550620000d6836200020c60201b60201c565b620000e882826200024f60201b60201c565b60055443620000f8919062000499565b60078190555050505050506200052f565b60006200011d83836200029c60201b60201c565b6200020157600160008085815260200190815260200160002060000160008473ffffffffffffffffffffffffffffffffffffffff1673ffffffffffffffffffffffffffffffffffffffff16815260200190815260200160002060006101000a81548160ff0219169083151502179055506200019d6200030660201b60201c565b73ffffffffffffffffffffffffffffffffffffffff168273ffffffffffffffffffffffffffffffffffffffff16847f2f8788117e7eff1d82e926ec794901d17c78024a50270940304540a733656f0d60405160405180910390a46001905062000206565b600090505b92915050565b806002819055507f9d699f862acc3d76830ba2f9d1efc23c25190e4309f64c091cffc65230fe568f81604051620002449190620004e5565b60405180910390a150565b81600581905550806006819055507fc01acf06a73b9c6b1e27941f05c5a9e8f8132593e96d257da8869304c6236f6982826040516200029092919062000502565b60405180910390a15050565b600080600084815260200190815260200160002060000160008373ffffffffffffffffffffffffffffffffffffffff1673ffffffffffffffffffffffffffffffffffffffff16815260200190815260200160002060009054906101000a900460ff16905092915050565b600033905090565b7f4e487b7100000000000000000000000000000000000000000000000000000000600052602160045260246000fd5b600080fd5b600073ffffffffffffffffffffffffffffffffffffffff82169050919050565b60006200036f8262000342565b9050919050565b620003818162000362565b81146200038d57600080fd5b50565b600081519050620003a18162000376565b92915050565b6000819050919050565b620003bc81620003a7565b8114620003c857600080fd5b50565b600081519050620003dc81620003b1565b92915050565b600080600080600060a086880312156200040157620004006200033d565b5b6000620004118882890162000390565b9550506020620004248882890162000390565b94505060406200043788828901620003cb565b93505060606200044a88828901620003cb565b92505060806200045d88828901620003cb565b9150509295509295909350565b7f4e487b7100000000000000000000000000000000000000000000000000000000600052601160045260246000fd5b6000620004a682620003a7565b9150620004b383620003a7565b9250828201905080821115620004ce57620004cd6200046a565b5b92915050565b620004df81620003a7565b82525050565b6000602082019050620004fc6000830184620004d4565b92915050565b6000604082019050620005196000830185620004d4565b620005286020830184620004d4565b9392505050565b611b9c806200053f6000396000f3fe60806040526004361061014b5760003560e01c8063865f87ac116100b6578063b4ed71451161006f578063b4ed71451461045a578063c194116f14610471578063d547741f1461049a578063e63ab1e9146104c3578063f5b541a6146104ee578063ff926998146105195761014b565b8063865f87ac1461035c578063890ef5921461038757806391d14854146103b2578063998cdf83146103ef578063a217fddf14610418578063a82f143c146104435761014b565b8063447117b411610108578063447117b4146102705780635cfb2ad21461029b5780637dd0480f146102c657806382ac7008146102dd57806382b12dd71461030857806384f302f1146103335761014b565b806301ffc9a714610150578063120da5081461018d57806322e4ca23146101b8578063248a9ca3146101e15780632f2ff15d1461021e57806336568abe14610247575b600080fd5b34801561015c57600080fd5b50610177600480360381019061017291906113aa565b610535565b60405161018491906113f2565b60405180910390f35b34801561019957600080fd5b506101a26105af565b6040516101af9190611426565b60405180910390f35b3480156101c457600080fd5b506101df60048036038101906101da9190611611565b6105b5565b005b3480156101ed57600080fd5b50610208600480360381019061020391906116ca565b6107c6565b6040516102159190611706565b60405180910390f35b34801561022a57600080fd5b5061024560048036038101906102409190611721565b6107e5565b005b34801561025357600080fd5b5061026e60048036038101906102699190611721565b610807565b005b34801561027c57600080fd5b50610285610882565b6040516102929190611426565b60405180910390f35b3480156102a757600080fd5b506102b0610888565b6040516102bd9190611426565b60405180910390f35b3480156102d257600080fd5b506102db61088e565b005b3480156102e957600080fd5b506102f261095b565b6040516102ff9190611426565b60405180910390f35b34801561031457600080fd5b5061031d610961565b60405161032a9190611426565b60405180910390f35b34801561033f57600080fd5b5061035a60048036038101906103559190611761565b610967565b005b34801561036857600080fd5b50610371610983565b60405161037e9190611818565b60405180910390f35b34801561039357600080fd5b5061039c610996565b6040516103a99190611892565b60405180910390f35b3480156103be57600080fd5b506103d960048036038101906103d49190611721565b6109bc565b6040516103e691906113f2565b60405180910390f35b3480156103fb57600080fd5b50610416600480360381019061041191906118ad565b610a26565b005b34801561042457600080fd5b5061042d610a40565b60405161043a9190611706565b60405180910390f35b34801561044f57600080fd5b50610458610a47565b005b34801561046657600080fd5b5061046f610aba565b005b34801561047d57600080fd5b50610498600480360381019061049391906118da565b610b50565b005b3480156104a657600080fd5b506104c160048036038101906104bc9190611721565b610d5e565b005b3480156104cf57600080fd5b506104d8610d80565b6040516104e59190611706565b60405180910390f35b3480156104fa57600080fd5b50610503610da4565b6040516105109190611706565b60405180910390f35b610533600480360381019061052e919061192d565b610dc8565b005b60007f7965db0b000000000000000000000000000000000000000000000000000000007bffffffffffffffffffffffffffffffffffffffffffffffffffffffff1916827bffffffffffffffffffffffffffffffffffffffffffffffffffffffff191614806105a857506105a782610f93565b5b9050919050565b60085481565b7f97667070c54ef182b0f5858b034beac1b6f3089aa2d3188bb1e8929f4fa9b9296105df81610ffd565b6105e7611011565b61061d576040517f492fe4b900000000000000000000000000000000000000000000000000000000815260040160405180910390fd5b6000830361066257826040517f2dc2b0cc0000000000000000000000000000000000000000000000000000000081526004016106599190611426565b60405180910390fd5b61066a61104e565b600060085460065461067c919061199c565b9050808411156106c55783816040517fd0b063f00000000000000000000000000000000000000000000000000000000081526004016106bc9291906119d0565b60405180910390fd5b83600860008282546106d791906119f9565b92505081905550600360009054906101000a900473ffffffffffffffffffffffffffffffffffffffff1673ffffffffffffffffffffffffffffffffffffffff166340c10f1986866040518363ffffffff1660e01b815260040161073b929190611a3c565b600060405180830381600087803b15801561075557600080fd5b505af1158015610769573d6000803e3d6000fd5b505050508473ffffffffffffffffffffffffffffffffffffffff16867fa25b21b9fa597e02e957bf452497316423b937661dfa0b53f2c89d5e43725d4386866040516107b6929190611ae4565b60405180910390a3505050505050565b6000806000838152602001908152602001600020600101549050919050565b6107ee826107c6565b6107f781610ffd565b6108018383611076565b50505050565b61080f611167565b73ffffffffffffffffffffffffffffffffffffffff168173ffffffffffffffffffffffffffffffffffffffff1614610873576040517f6697b23200000000000000000000000000000000000000000000000000000000815260040160405180910390fd5b61087d828261116f565b505050565b60075481565b60055481565b7f65d7a28e3265b37a6474929f336521b332c1681b933f6cb9f3376673440d862a6108b881610ffd565b6108c0611011565b6108f6576040517f492fe4b900000000000000000000000000000000000000000000000000000000815260040160405180910390fd5b60018060006101000a81548160ff0219169083600181111561091b5761091a6117a1565b5b02179055507f674a79b744f31247a99ff1ed4a383c0c77299efbdb099b5f69a75077aa3872ae60016040516109509190611818565b60405180910390a150565b60065481565b60025481565b6000801b61097481610ffd565b61097e8383611261565b505050565b600160009054906101000a900460ff1681565b600360009054906101000a900473ffffffffffffffffffffffffffffffffffffffff1681565b600080600084815260200190815260200160002060000160008373ffffffffffffffffffffffffffffffffffffffff1673ffffffffffffffffffffffffffffffffffffffff16815260200190815260200160002060009054906101000a900460ff16905092915050565b6000801b610a3381610ffd565b610a3c826112ac565b5050565b6000801b81565b6000801b610a5481610ffd565b6000600160006101000a81548160ff02191690836001811115610a7a57610a796117a1565b5b02179055507f674a79b744f31247a99ff1ed4a383c0c77299efbdb099b5f69a75077aa3872ae6000604051610aaf9190611818565b60405180910390a150565b6000801b610ac781610ffd565b60004790503373ffffffffffffffffffffffffffffffffffffffff166108fc829081150290604051600060405180830381858888f19350505050158015610b12573d6000803e3d6000fd5b507f120c23ad9d3d7272a0d20dd6b7a2822584daf524e67963daa6a7d47b7576a8163382604051610b44929190611a3c565b60405180910390a15050565b7f97667070c54ef182b0f5858b034beac1b6f3089aa2d3188bb1e8929f4fa9b929610b7a81610ffd565b610b82611011565b610bb8576040517f492fe4b900000000000000000000000000000000000000000000000000000000815260040160405180910390fd5b60008203610bfd57816040517f2dc2b0cc000000000000000000000000000000000000000000000000000000008152600401610bf49190611426565b60405180910390fd5b610c0561104e565b6000600854600654610c17919061199c565b905080831115610c605782816040517fd0b063f0000000000000000000000000000000000000000000000000000000008152600401610c579291906119d0565b60405180910390fd5b8260086000828254610c7291906119f9565b92505081905550600360009054906101000a900473ffffffffffffffffffffffffffffffffffffffff1673ffffffffffffffffffffffffffffffffffffffff166340c10f1985856040518363ffffffff1660e01b8152600401610cd6929190611a3c565b600060405180830381600087803b158015610cf057600080fd5b505af1158015610d04573d6000803e3d6000fd5b505050508373ffffffffffffffffffffffffffffffffffffffff16857f7e23ecf974046609d9a1de48d379cfca42f21df5a2a1a061dc97468705e44ec285604051610d4f9190611426565b60405180910390a35050505050565b610d67826107c6565b610d7081610ffd565b610d7a838361116f565b50505050565b7f65d7a28e3265b37a6474929f336521b332c1681b933f6cb9f3376673440d862a81565b7f97667070c54ef182b0f5858b034beac1b6f3089aa2d3188bb1e8929f4fa9b92981565b610dd0611011565b610e06576040517f492fe4b900000000000000000000000000000000000000000000000000000000815260040160405180910390fd5b6002543414610e4e576002546040517fee18ec47000000000000000000000000000000000000000000000000000000008152600401610e459190611426565b60405180910390fd5b60008103610e9357806040517f2dc2b0cc000000000000000000000000000000000000000000000000000000008152600401610e8a9190611426565b60405180910390fd5b600360009054906101000a900473ffffffffffffffffffffffffffffffffffffffff1673ffffffffffffffffffffffffffffffffffffffff166379cc679033836040518363ffffffff1660e01b8152600401610ef0929190611a3c565b600060405180830381600087803b158015610f0a57600080fd5b505af1158015610f1e573d6000803e3d6000fd5b505050503373ffffffffffffffffffffffffffffffffffffffff166004547f82faa25a69607faadf0963495313e5c2b60799b5c3a65e35d850b77e73b79f6d8484604051610f6d929190611b14565b60405180910390a3600160046000828254610f8891906119f9565b925050819055505050565b60007f01ffc9a7000000000000000000000000000000000000000000000000000000007bffffffffffffffffffffffffffffffffffffffffffffffffffffffff1916827bffffffffffffffffffffffffffffffffffffffffffffffffffffffff1916149050919050565b61100e81611009611167565b6112ed565b50565b6000806001811115611026576110256117a1565b5b600160009054906101000a900460ff166001811115611048576110476117a1565b5b14905090565b6007544310611074576005544361106591906119f9565b60078190555060006008819055505b565b600061108283836109bc565b61115c57600160008085815260200190815260200160002060000160008473ffffffffffffffffffffffffffffffffffffffff1673ffffffffffffffffffffffffffffffffffffffff16815260200190815260200160002060006101000a81548160ff0219169083151502179055506110f9611167565b73ffffffffffffffffffffffffffffffffffffffff168273ffffffffffffffffffffffffffffffffffffffff16847f2f8788117e7eff1d82e926ec794901d17c78024a50270940304540a733656f0d60405160405180910390a460019050611161565b600090505b92915050565b600033905090565b600061117b83836109bc565b1561125657600080600085815260200190815260200160002060000160008473ffffffffffffffffffffffffffffffffffffffff1673ffffffffffffffffffffffffffffffffffffffff16815260200190815260200160002060006101000a81548160ff0219169083151502179055506111f3611167565b73ffffffffffffffffffffffffffffffffffffffff168273ffffffffffffffffffffffffffffffffffffffff16847ff6391f5c32d9c69d2a47ea670b442974b53935d1edc7fd64eb21e047a839171b60405160405180910390a46001905061125b565b600090505b92915050565b81600581905550806006819055507fc01acf06a73b9c6b1e27941f05c5a9e8f8132593e96d257da8869304c6236f6982826040516112a09291906119d0565b60405180910390a15050565b806002819055507f9d699f862acc3d76830ba2f9d1efc23c25190e4309f64c091cffc65230fe568f816040516112e29190611426565b60405180910390a150565b6112f782826109bc565b61133a5780826040517fe2517d3f000000000000000000000000000000000000000000000000000000008152600401611331929190611b3d565b60405180910390fd5b5050565b6000604051905090565b600080fd5b600080fd5b60007fffffffff0000000000000000000000000000000000000000000000000000000082169050919050565b61138781611352565b811461139257600080fd5b50565b6000813590506113a48161137e565b92915050565b6000602082840312156113c0576113bf611348565b5b60006113ce84828501611395565b91505092915050565b60008115159050919050565b6113ec816113d7565b82525050565b600060208201905061140760008301846113e3565b92915050565b6000819050919050565b6114208161140d565b82525050565b600060208201905061143b6000830184611417565b92915050565b61144a8161140d565b811461145557600080fd5b50565b60008135905061146781611441565b92915050565b600073ffffffffffffffffffffffffffffffffffffffff82169050919050565b60006114988261146d565b9050919050565b6114a88161148d565b81146114b357600080fd5b50565b6000813590506114c58161149f565b92915050565b600080fd5b600080fd5b6000601f19601f8301169050919050565b7f4e487b7100000000000000000000000000000000000000000000000000000000600052604160045260246000fd5b61151e826114d5565b810181811067ffffffffffffffff8211171561153d5761153c6114e6565b5b80604052505050565b600061155061133e565b905061155c8282611515565b919050565b600067ffffffffffffffff82111561157c5761157b6114e6565b5b611585826114d5565b9050602081019050919050565b82818337600083830152505050565b60006115b46115af84611561565b611546565b9050828152602081018484840111156115d0576115cf6114d0565b5b6115db848285611592565b509392505050565b600082601f8301126115f8576115f76114cb565b5b81356116088482602086016115a1565b91505092915050565b6000806000806080858703121561162b5761162a611348565b5b600061163987828801611458565b945050602061164a878288016114b6565b935050604061165b87828801611458565b925050606085013567ffffffffffffffff81111561167c5761167b61134d565b5b611688878288016115e3565b91505092959194509250565b6000819050919050565b6116a781611694565b81146116b257600080fd5b50565b6000813590506116c48161169e565b92915050565b6000602082840312156116e0576116df611348565b5b60006116ee848285016116b5565b91505092915050565b61170081611694565b82525050565b600060208201905061171b60008301846116f7565b92915050565b6000806040838503121561173857611737611348565b5b6000611746858286016116b5565b9250506020611757858286016114b6565b9150509250929050565b6000806040838503121561177857611777611348565b5b600061178685828601611458565b925050602061179785828601611458565b9150509250929050565b7f4e487b7100000000000000000000000000000000000000000000000000000000600052602160045260246000fd5b600281106117e1576117e06117a1565b5b50565b60008190506117f2826117d0565b919050565b6000611802826117e4565b9050919050565b611812816117f7565b82525050565b600060208201905061182d6000830184611809565b92915050565b6000819050919050565b600061185861185361184e8461146d565b611833565b61146d565b9050919050565b600061186a8261183d565b9050919050565b600061187c8261185f565b9050919050565b61188c81611871565b82525050565b60006020820190506118a76000830184611883565b92915050565b6000602082840312156118c3576118c2611348565b5b60006118d184828501611458565b91505092915050565b6000806000606084860312156118f3576118f2611348565b5b600061190186828701611458565b9350506020611912868287016114b6565b925050604061192386828701611458565b9150509250925092565b6000806040838503121561194457611943611348565b5b6000611952858286016116b5565b925050602061196385828601611458565b9150509250929050565b7f4e487b7100000000000000000000000000000000000000000000000000000000600052601160045260246000fd5b60006119a78261140d565b91506119b28361140d565b92508282039050818111156119ca576119c961196d565b5b92915050565b60006040820190506119e56000830185611417565b6119f26020830184611417565b9392505050565b6000611a048261140d565b9150611a0f8361140d565b9250828201905080821115611a2757611a2661196d565b5b92915050565b611a368161148d565b82525050565b6000604082019050611a516000830185611a2d565b611a5e6020830184611417565b9392505050565b600081519050919050565b600082825260208201905092915050565b60005b83811015611a9f578082015181840152602081019050611a84565b60008484015250505050565b6000611ab682611a65565b611ac08185611a70565b9350611ad0818560208601611a81565b611ad9816114d5565b840191505092915050565b6000604082019050611af96000830185611417565b8181036020830152611b0b8184611aab565b90509392505050565b6000604082019050611b2960008301856116f7565b611b366020830184611417565b9392505050565b6000604082019050611b526000830185611a2d565b611b5f60208301846116f7565b939250505056fea264697066735822122055f498d07f361fbc1afb16a18f67abd968f42017daeda82a6b0a4068359bcebf64736f6c63430008180033",
  "linkReferences": {},
  "deployedLinkReferences": {}
}